{
  "_format": "hh-sol-artifact-1",
  "contractName": "MerkleDistributor",
  "sourceName": "contracts/MerkleDistributor.sol",
  "abi": [
    {
      "inputs": [
        {
          "internalType": "address",
          "name": "token_",
          "type": "address"
        },
        {
          "internalType": "bytes32",
          "name": "merkleRoot_",
          "type": "bytes32"
        },
        {
          "internalType": "uint256",
          "name": "dropAmount_",
          "type": "uint256"
        }
      ],
      "stateMutability": "nonpayable",
      "type": "constructor"
    },
    {
      "anonymous": false,
      "inputs": [
        {
          "indexed": true,
          "internalType": "address",
          "name": "_from",
          "type": "address"
        },
        {
          "indexed": false,
          "internalType": "uint256",
          "name": "_dropAmount",
          "type": "uint256"
        }
      ],
      "name": "Claimed",
      "type": "event"
    },
    {
      "inputs": [
        {
          "internalType": "bytes32[]",
          "name": "merkleProof",
          "type": "bytes32[]"
        }
      ],
      "name": "claim",
      "outputs": [],
      "stateMutability": "nonpayable",
      "type": "function"
    },
    {
      "inputs": [],
      "name": "dropAmount",
      "outputs": [
        {
          "internalType": "uint256",
          "name": "",
          "type": "uint256"
        }
      ],
      "stateMutability": "view",
      "type": "function"
    },
    {
      "inputs": [],
      "name": "merkleRoot",
      "outputs": [
        {
          "internalType": "bytes32",
          "name": "",
          "type": "bytes32"
        }
      ],
      "stateMutability": "view",
      "type": "function"
    },
    {
      "inputs": [],
      "name": "token",
      "outputs": [
        {
          "internalType": "address",
          "name": "",
          "type": "address"
        }
      ],
      "stateMutability": "view",
      "type": "function"
    }
  ],
  "bytecode": "0x60c06040523480156200001157600080fd5b5060405162000b9a38038062000b9a833981810160405281019062000037919062000163565b8273ffffffffffffffffffffffffffffffffffffffff1660808173ffffffffffffffffffffffffffffffffffffffff16815250508160a0818152505080600081905550505050620001bf565b600080fd5b600073ffffffffffffffffffffffffffffffffffffffff82169050919050565b6000620000b58262000088565b9050919050565b620000c781620000a8565b8114620000d357600080fd5b50565b600081519050620000e781620000bc565b92915050565b6000819050919050565b6200010281620000ed565b81146200010e57600080fd5b50565b6000815190506200012281620000f7565b92915050565b6000819050919050565b6200013d8162000128565b81146200014957600080fd5b50565b6000815190506200015d8162000132565b92915050565b6000806000606084860312156200017f576200017e62000083565b5b60006200018f86828701620000d6565b9350506020620001a28682870162000111565b9250506040620001b5868287016200014c565b9150509250925092565b60805160a0516109a8620001f26000396000818160cf01526101e501526000818161028f01526103c301526109a86000f3fe608060405234801561001057600080fd5b506004361061004c5760003560e01c806305748be2146100515780632eb4a7ab1461006f578063b391c5081461008d578063fc0c546a146100a9575b600080fd5b6100596100c7565b60405161006691906104ad565b60405180910390f35b6100776100cd565b60405161008491906104e1565b60405180910390f35b6100a760048036038101906100a2919061056b565b6100f1565b005b6100b16103c1565b6040516100be91906105f9565b60405180910390f35b60005481565b7f000000000000000000000000000000000000000000000000000000000000000081565b6000600160003373ffffffffffffffffffffffffffffffffffffffff1673ffffffffffffffffffffffffffffffffffffffff1681526020019081526020016000205414610173576040517f08c379a000000000000000000000000000000000000000000000000000000000815260040161016a90610697565b60405180910390fd5b60003360405160200161018691906106ff565b60405160208183030381529060405280519060200120905061020a838380806020026020016040519081016040528093929190818152602001838360200280828437600081840152601f19601f820116905080830192505050505050507f0000000000000000000000000000000000000000000000000000000000000000836103e5565b610249576040517f08c379a00000000000000000000000000000000000000000000000000000000081526004016102409061078c565b60405180910390fd5b60018060003373ffffffffffffffffffffffffffffffffffffffff1673ffffffffffffffffffffffffffffffffffffffff168152602001908152602001600020819055507f000000000000000000000000000000000000000000000000000000000000000073ffffffffffffffffffffffffffffffffffffffff1663a9059cbb336000546040518363ffffffff1660e01b81526004016102ea9291906107ac565b6020604051808303816000875af1158015610309573d6000803e3d6000fd5b505050506040513d601f19601f8201168201806040525081019061032d919061080d565b61036c576040517f08c379a0000000000000000000000000000000000000000000000000000000008152600401610363906108ac565b60405180910390fd5b3373ffffffffffffffffffffffffffffffffffffffff167fd8138f8a3f377c5259ca548e70e4c2de94f129f5a11036a15b69513cba2b426a6000546040516103b491906104ad565b60405180910390a2505050565b7f000000000000000000000000000000000000000000000000000000000000000081565b6000826103f285846103fc565b1490509392505050565b60008082905060005b84518110156104475761043282868381518110610425576104246108cc565b5b6020026020010151610452565b9150808061043f9061092a565b915050610405565b508091505092915050565b600081831061046a57610465828461047d565b610475565b610474838361047d565b5b905092915050565b600082600052816020526040600020905092915050565b6000819050919050565b6104a781610494565b82525050565b60006020820190506104c2600083018461049e565b92915050565b6000819050919050565b6104db816104c8565b82525050565b60006020820190506104f660008301846104d2565b92915050565b600080fd5b600080fd5b600080fd5b600080fd5b600080fd5b60008083601f84011261052b5761052a610506565b5b8235905067ffffffffffffffff8111156105485761054761050b565b5b60208301915083602082028301111561056457610563610510565b5b9250929050565b60008060208385031215610582576105816104fc565b5b600083013567ffffffffffffffff8111156105a05761059f610501565b5b6105ac85828601610515565b92509250509250929050565b600073ffffffffffffffffffffffffffffffffffffffff82169050919050565b60006105e3826105b8565b9050919050565b6105f3816105d8565b82525050565b600060208201905061060e60008301846105ea565b92915050565b600082825260208201905092915050565b7f4d65726b6c654469737472696275746f723a2044726f7020616c72656164792060008201527f636c61696d65642e000000000000000000000000000000000000000000000000602082015250565b6000610681602883610614565b915061068c82610625565b604082019050919050565b600060208201905081810360008301526106b081610674565b9050919050565b60008160601b9050919050565b60006106cf826106b7565b9050919050565b60006106e1826106c4565b9050919050565b6106f96106f4826105d8565b6106d6565b82525050565b600061070b82846106e8565b60148201915081905092915050565b7f4d65726b6c654469737472696275746f723a20496e76616c69642070726f6f6660008201527f2e00000000000000000000000000000000000000000000000000000000000000602082015250565b6000610776602183610614565b91506107818261071a565b604082019050919050565b600060208201905081810360008301526107a581610769565b9050919050565b60006040820190506107c160008301856105ea565b6107ce602083018461049e565b9392505050565b60008115159050919050565b6107ea816107d5565b81146107f557600080fd5b50565b600081519050610807816107e1565b92915050565b600060208284031215610823576108226104fc565b5b6000610831848285016107f8565b91505092915050565b7f4d65726b6c654469737472696275746f723a205472616e73666572206661696c60008201527f65642e0000000000000000000000000000000000000000000000000000000000602082015250565b6000610896602383610614565b91506108a18261083a565b604082019050919050565b600060208201905081810360008301526108c581610889565b9050919050565b7f4e487b7100000000000000000000000000000000000000000000000000000000600052603260045260246000fd5b7f4e487b7100000000000000000000000000000000000000000000000000000000600052601160045260246000fd5b600061093582610494565b91507fffffffffffffffffffffffffffffffffffffffffffffffffffffffffffffffff8203610967576109666108fb565b5b60018201905091905056fea264697066735822122067c9017628684f27bc0d7caa1a68fd12f2c78a5b5ef800bb989b85d617c0567b64736f6c63430008110033",
  "linkReferences": {},
  "deployedLinkReferences": {}
}